{
  "contractName": "Marketplace",
  "abi": [
    {
      "anonymous": false,
      "inputs": [
        {
          "indexed": false,
          "internalType": "uint256",
          "name": "id",
          "type": "uint256"
        },
        {
          "indexed": false,
          "internalType": "string",
          "name": "name",
          "type": "string"
        },
        {
          "indexed": false,
          "internalType": "uint256",
          "name": "price",
          "type": "uint256"
        },
        {
          "indexed": false,
          "internalType": "address payable",
          "name": "owner",
          "type": "address"
        },
        {
          "indexed": false,
          "internalType": "bool",
          "name": "purchased",
          "type": "bool"
        },
        {
          "indexed": false,
          "internalType": "string",
          "name": "imageUrl",
          "type": "string"
        },
        {
          "indexed": false,
          "internalType": "string",
          "name": "condition",
          "type": "string"
        }
      ],
      "name": "ProductCreated",
      "type": "event"
    },
    {
      "anonymous": false,
      "inputs": [
        {
          "indexed": false,
          "internalType": "uint256",
          "name": "id",
          "type": "uint256"
        },
        {
          "indexed": false,
          "internalType": "string",
          "name": "name",
          "type": "string"
        },
        {
          "indexed": false,
          "internalType": "uint256",
          "name": "price",
          "type": "uint256"
        },
        {
          "indexed": false,
          "internalType": "address payable",
          "name": "owner",
          "type": "address"
        },
        {
          "indexed": false,
          "internalType": "bool",
          "name": "purchased",
          "type": "bool"
        }
      ],
      "name": "ProductPurchased",
      "type": "event"
    },
    {
      "constant": true,
      "inputs": [],
      "name": "name",
      "outputs": [
        {
          "internalType": "string",
          "name": "",
          "type": "string"
        }
      ],
      "payable": false,
      "stateMutability": "view",
      "type": "function"
    },
    {
      "constant": true,
      "inputs": [],
      "name": "productCount",
      "outputs": [
        {
          "internalType": "uint256",
          "name": "",
          "type": "uint256"
        }
      ],
      "payable": false,
      "stateMutability": "view",
      "type": "function"
    },
    {
      "constant": true,
      "inputs": [
        {
          "internalType": "uint256",
          "name": "",
          "type": "uint256"
        }
      ],
      "name": "products",
      "outputs": [
        {
          "internalType": "uint256",
          "name": "id",
          "type": "uint256"
        },
        {
          "internalType": "string",
          "name": "name",
          "type": "string"
        },
        {
          "internalType": "uint256",
          "name": "price",
          "type": "uint256"
        },
        {
          "internalType": "address payable",
          "name": "owner",
          "type": "address"
        },
        {
          "internalType": "bool",
          "name": "purchased",
          "type": "bool"
        },
        {
          "internalType": "string",
          "name": "imaxgeUrl",
          "type": "string"
        },
        {
          "internalType": "string",
          "name": "condition",
          "type": "string"
        }
      ],
      "payable": false,
      "stateMutability": "view",
      "type": "function"
    },
    {
      "constant": false,
      "inputs": [
        {
          "internalType": "string",
          "name": "_name",
          "type": "string"
        },
        {
          "internalType": "uint256",
          "name": "_price",
          "type": "uint256"
        },
        {
          "internalType": "string",
          "name": "_imageUrl",
          "type": "string"
        },
        {
          "internalType": "string",
          "name": "_condition",
          "type": "string"
        }
      ],
      "name": "createProduct",
      "outputs": [],
      "payable": false,
      "stateMutability": "nonpayable",
      "type": "function"
    },
    {
      "constant": false,
      "inputs": [
        {
          "internalType": "uint256",
          "name": "_id",
          "type": "uint256"
        }
      ],
      "name": "purchaseProduct",
      "outputs": [],
      "payable": true,
      "stateMutability": "payable",
      "type": "function"
    }
  ],
  "bytecode": "0x6080604052600060015534801561001557600080fd5b506111e9806100256000396000f3fe60806040526004361061004a5760003560e01c806306fdde031461004f57806307877cff146100df57806338e76a03146102df5780637acc0b201461030d578063e0f6ef87146104e5575b600080fd5b34801561005b57600080fd5b50610064610510565b6040518080602001828103825283818151815260200191508051906020019080838360005b838110156100a4578082015181840152602081019050610089565b50505050905090810190601f1680156100d15780820380516001836020036101000a031916815260200191505b509250505060405180910390f35b3480156100eb57600080fd5b506102dd6004803603608081101561010257600080fd5b810190808035906020019064010000000081111561011f57600080fd5b82018360208201111561013157600080fd5b8035906020019184600183028401116401000000008311171561015357600080fd5b91908080601f016020809104026020016040519081016040528093929190818152602001838380828437600081840152601f19601f82011690508083019250505050505050919291929080359060200190929190803590602001906401000000008111156101c057600080fd5b8201836020820111156101d257600080fd5b803590602001918460018302840111640100000000831117156101f457600080fd5b91908080601f016020809104026020016040519081016040528093929190818152602001838380828437600081840152601f19601f8201169050808301925050505050505091929192908035906020019064010000000081111561025757600080fd5b82018360208201111561026957600080fd5b8035906020019184600183028401116401000000008311171561028b57600080fd5b91908080601f016020809104026020016040519081016040528093929190818152602001838380828437600081840152601f19601f8201169050808301925050505050505091929192905050506105ae565b005b61030b600480360360208110156102f557600080fd5b81019080803590602001909291905050506108f0565b005b34801561031957600080fd5b506103466004803603602081101561033057600080fd5b8101908080359060200190929190505050610e7d565b60405180888152602001806020018781526020018673ffffffffffffffffffffffffffffffffffffffff1673ffffffffffffffffffffffffffffffffffffffff16815260200185151515158152602001806020018060200184810384528a818151815260200191508051906020019080838360005b838110156103d65780820151818401526020810190506103bb565b50505050905090810190601f1680156104035780820380516001836020036101000a031916815260200191505b50848103835286818151815260200191508051906020019080838360005b8381101561043c578082015181840152602081019050610421565b50505050905090810190601f1680156104695780820380516001836020036101000a031916815260200191505b50848103825285818151815260200191508051906020019080838360005b838110156104a2578082015181840152602081019050610487565b50505050905090810190601f1680156104cf5780820380516001836020036101000a031916815260200191505b509a505050505050505050505060405180910390f35b3480156104f157600080fd5b506104fa6110b4565b6040518082815260200191505060405180910390f35b60008054600181600116156101000203166002900480601f0160208091040260200160405190810160405280929190818152602001828054600181600116156101000203166002900480156105a65780601f1061057b576101008083540402835291602001916105a6565b820191906000526020600020905b81548152906001019060200180831161058957829003601f168201915b505050505081565b60008451116105bc57600080fd5b600083116105c957600080fd5b60008151116105d757600080fd5b6001600081548092919060010191905055506040518060e0016040528060015481526020018581526020018481526020013373ffffffffffffffffffffffffffffffffffffffff168152602001600015158152602001838152602001828152506002600060015481526020019081526020016000206000820151816000015560208201518160010190805190602001906106729291906110ba565b506040820151816002015560608201518160030160006101000a81548173ffffffffffffffffffffffffffffffffffffffff021916908373ffffffffffffffffffffffffffffffffffffffff16021790555060808201518160030160146101000a81548160ff02191690831515021790555060a08201518160040190805190602001906107009291906110ba565b5060c082015181600501908051906020019061071d9291906110ba565b509050507f306de7597241c4bdd3448c0fb99001855d22d2e714f6a7137396d1ee3ced4c396001548585336000878760405180888152602001806020018781526020018673ffffffffffffffffffffffffffffffffffffffff1673ffffffffffffffffffffffffffffffffffffffff16815260200185151515158152602001806020018060200184810384528a818151815260200191508051906020019080838360005b838110156107dc5780820151818401526020810190506107c1565b50505050905090810190601f1680156108095780820380516001836020036101000a031916815260200191505b50848103835286818151815260200191508051906020019080838360005b83811015610842578082015181840152602081019050610827565b50505050905090810190601f16801561086f5780820380516001836020036101000a031916815260200191505b50848103825285818151815260200191508051906020019080838360005b838110156108a857808201518184015260208101905061088d565b50505050905090810190601f1680156108d55780820380516001836020036101000a031916815260200191505b509a505050505050505050505060405180910390a150505050565b6108f861113a565b600260008381526020019081526020016000206040518060e001604052908160008201548152602001600182018054600181600116156101000203166002900480601f0160208091040260200160405190810160405280929190818152602001828054600181600116156101000203166002900480156109b95780601f1061098e576101008083540402835291602001916109b9565b820191906000526020600020905b81548152906001019060200180831161099c57829003601f168201915b50505050508152602001600282015481526020016003820160009054906101000a900473ffffffffffffffffffffffffffffffffffffffff1673ffffffffffffffffffffffffffffffffffffffff1673ffffffffffffffffffffffffffffffffffffffff1681526020016003820160149054906101000a900460ff16151515158152602001600482018054600181600116156101000203166002900480601f016020809104026020016040519081016040528092919081815260200182805460018160011615610100020316600290048015610ad65780601f10610aab57610100808354040283529160200191610ad6565b820191906000526020600020905b815481529060010190602001808311610ab957829003601f168201915b50505050508152602001600582018054600181600116156101000203166002900480601f016020809104026020016040519081016040528092919081815260200182805460018160011615610100020316600290048015610b785780601f10610b4d57610100808354040283529160200191610b78565b820191906000526020600020905b815481529060010190602001808311610b5b57829003601f168201915b505050505081525050905060008160600151905060008260000151118015610ba65750600154826000015111155b610baf57600080fd5b8160400151341015610bc057600080fd5b816080015115610bcf57600080fd5b3373ffffffffffffffffffffffffffffffffffffffff168173ffffffffffffffffffffffffffffffffffffffff161415610c0857600080fd5b33826060019073ffffffffffffffffffffffffffffffffffffffff16908173ffffffffffffffffffffffffffffffffffffffff168152505060018260800190151590811515815250508160026000858152602001908152602001600020600082015181600001556020820151816001019080519060200190610c8b9291906110ba565b506040820151816002015560608201518160030160006101000a81548173ffffffffffffffffffffffffffffffffffffffff021916908373ffffffffffffffffffffffffffffffffffffffff16021790555060808201518160030160146101000a81548160ff02191690831515021790555060a0820151816004019080519060200190610d199291906110ba565b5060c0820151816005019080519060200190610d369291906110ba565b509050508073ffffffffffffffffffffffffffffffffffffffff166108fc349081150290604051600060405180830381858888f19350505050158015610d80573d6000803e3d6000fd5b507f79558d0d7d4d900e2f15c4cc0a665f1acdbe415e44de900ecdd1e5bf12b56f4e6001548360200151846040015133600160405180868152602001806020018581526020018473ffffffffffffffffffffffffffffffffffffffff1673ffffffffffffffffffffffffffffffffffffffff16815260200183151515158152602001828103825286818151815260200191508051906020019080838360005b83811015610e3a578082015181840152602081019050610e1f565b50505050905090810190601f168015610e675780820380516001836020036101000a031916815260200191505b50965050505050505060405180910390a1505050565b6002602052806000526040600020600091509050806000015490806001018054600181600116156101000203166002900480601f016020809104026020016040519081016040528092919081815260200182805460018160011615610100020316600290048015610f2f5780601f10610f0457610100808354040283529160200191610f2f565b820191906000526020600020905b815481529060010190602001808311610f1257829003601f168201915b5050505050908060020154908060030160009054906101000a900473ffffffffffffffffffffffffffffffffffffffff16908060030160149054906101000a900460ff1690806004018054600181600116156101000203166002900480601f01602080910402602001604051908101604052809291908181526020018280546001816001161561010002031660029004801561100c5780601f10610fe15761010080835404028352916020019161100c565b820191906000526020600020905b815481529060010190602001808311610fef57829003601f168201915b505050505090806005018054600181600116156101000203166002900480601f0160208091040260200160405190810160405280929190818152602001828054600181600116156101000203166002900480156110aa5780601f1061107f576101008083540402835291602001916110aa565b820191906000526020600020905b81548152906001019060200180831161108d57829003601f168201915b5050505050905087565b60015481565b828054600181600116156101000203166002900490600052602060002090601f016020900481019282601f106110fb57805160ff1916838001178555611129565b82800160010185558215611129579182015b8281111561112857825182559160200191906001019061110d565b5b509050611136919061118f565b5090565b6040518060e00160405280600081526020016060815260200160008152602001600073ffffffffffffffffffffffffffffffffffffffff16815260200160001515815260200160608152602001606081525090565b6111b191905b808211156111ad576000816000905550600101611195565b5090565b9056fea265627a7a72315820d97c37efb09d109b585e97ad767dd55c22d12409648f6e3bf8a4d6c9d831424464736f6c63430005100032",
  "source": "pragma solidity ^0.5.0;\n\ncontract Marketplace {\n    string public name;\n    uint public productCount = 0;\n    mapping(uint => Product) public products;\n\n    struct Product {\n        uint id;\n        string name;\n        uint price;\n        address payable owner;\n        bool purchased;\n        string imaxgeUrl;\n        string condition;\n    }\n\n    event ProductCreated(\n        uint id,\n        string name,\n        uint price,\n        address payable owner,\n        bool purchased,\n        string imageUrl,\n        string condition\n    );\n\n    event ProductPurchased(\n        uint id,\n        string name,\n        uint price,\n        address payable owner,\n        bool purchased\n    );\n\n    function createProduct(string memory _name, uint _price, string memory _imageUrl, string memory _condition) public {\n        // Require a valid name\n        require(bytes(_name).length > 0);\n        // Require a valid price\n        require(_price > 0);\n        //Valid condition input\n        require(bytes(_condition).length > 0);\n        // Increment product count\n        productCount ++;\n        // Create the product\n        products[productCount] = Product(productCount, _name, _price, msg.sender, false, _imageUrl, _condition);\n        // Trigger an event\n        emit ProductCreated(productCount, _name, _price, msg.sender, false, _imageUrl, _condition);\n    }\n\n    function purchaseProduct(uint _id) public payable {\n        // Fetch the product\n        Product memory _product = products[_id];\n        // Fetch the owner\n        address payable _seller = _product.owner;\n        // Make sure the product has a valid id\n        require(_product.id > 0 && _product.id <= productCount);\n        // Require that there is enough Ether in the transaction\n        require(msg.value >= _product.price);\n        // Require that the product has not been purchased already\n        require(!_product.purchased);\n        // Require that the buyer is not the seller\n        require(_seller != msg.sender);\n        // Transfer ownership to the buyer\n        _product.owner = msg.sender;\n        // Mark as purchased\n        _product.purchased = true;\n        // Update the product\n        products[_id] = _product;\n        // Pay the seller by sending them Ether\n        address(_seller).transfer(msg.value);\n        // Trigger an event\n        emit ProductPurchased(productCount, _product.name, _product.price, msg.sender, true);\n    }\n}\n",
  "sourcePath": "D:\\Coding\\blockchain\\codev2\\src\\contracts\\Marketplace.sol",
  "compiler": {
    "name": "solc",
    "version": "0.5.16+commit.9c3226ce.Emscripten.clang"
  },
  "schemaVersion": "3.4.16",
  "updatedAt": "2023-11-29T12:22:02.363Z",
  "networkType": "ethereum",
  "devdoc": {
    "methods": {}
  },
  "userdoc": {
    "methods": {}
  }
}